{
  "_format": "hh-sol-artifact-1",
  "contractName": "DIDRegistry",
  "sourceName": "contracts/DIDRegistry.sol",
  "abi": [
    {
      "anonymous": false,
      "inputs": [
        {
          "indexed": false,
          "internalType": "string",
          "name": "did",
          "type": "string"
        }
      ],
      "name": "DIDDeactivated",
      "type": "event"
    },
    {
      "anonymous": false,
      "inputs": [
        {
          "indexed": false,
          "internalType": "string",
          "name": "did",
          "type": "string"
        },
        {
          "indexed": false,
          "internalType": "address",
          "name": "controller",
          "type": "address"
        },
        {
          "indexed": false,
          "internalType": "bytes32",
          "name": "docHash",
          "type": "bytes32"
        }
      ],
      "name": "DIDRegistered",
      "type": "event"
    },
    {
      "anonymous": false,
      "inputs": [
        {
          "indexed": false,
          "internalType": "string",
          "name": "did",
          "type": "string"
        },
        {
          "indexed": false,
          "internalType": "bytes32",
          "name": "newDocHash",
          "type": "bytes32"
        }
      ],
      "name": "DIDUpdated",
      "type": "event"
    },
    {
      "anonymous": false,
      "inputs": [
        {
          "indexed": false,
          "internalType": "string",
          "name": "subjectDid",
          "type": "string"
        },
        {
          "indexed": false,
          "internalType": "address",
          "name": "issuer",
          "type": "address"
        },
        {
          "indexed": false,
          "internalType": "bytes32",
          "name": "vcHash",
          "type": "bytes32"
        },
        {
          "indexed": false,
          "internalType": "string",
          "name": "metadataURI",
          "type": "string"
        }
      ],
      "name": "VCAnchored",
      "type": "event"
    },
    {
      "inputs": [
        {
          "internalType": "string",
          "name": "subjectDid",
          "type": "string"
        },
        {
          "internalType": "bytes32",
          "name": "vcHash",
          "type": "bytes32"
        },
        {
          "internalType": "string",
          "name": "metadataURI",
          "type": "string"
        }
      ],
      "name": "anchorCredential",
      "outputs": [],
      "stateMutability": "nonpayable",
      "type": "function"
    },
    {
      "inputs": [
        {
          "internalType": "string",
          "name": "did",
          "type": "string"
        }
      ],
      "name": "deactivateDID",
      "outputs": [],
      "stateMutability": "nonpayable",
      "type": "function"
    },
    {
      "inputs": [
        {
          "internalType": "string",
          "name": "did",
          "type": "string"
        }
      ],
      "name": "getDID",
      "outputs": [
        {
          "internalType": "address",
          "name": "controller",
          "type": "address"
        },
        {
          "internalType": "bytes32",
          "name": "docHash",
          "type": "bytes32"
        },
        {
          "internalType": "bool",
          "name": "active",
          "type": "bool"
        }
      ],
      "stateMutability": "view",
      "type": "function"
    },
    {
      "inputs": [
        {
          "internalType": "string",
          "name": "subjectDid",
          "type": "string"
        }
      ],
      "name": "getSubjectVCs",
      "outputs": [
        {
          "internalType": "bytes32[]",
          "name": "",
          "type": "bytes32[]"
        }
      ],
      "stateMutability": "view",
      "type": "function"
    },
    {
      "inputs": [
        {
          "internalType": "string",
          "name": "did",
          "type": "string"
        },
        {
          "internalType": "bytes32",
          "name": "docHash",
          "type": "bytes32"
        }
      ],
      "name": "registerDID",
      "outputs": [],
      "stateMutability": "nonpayable",
      "type": "function"
    },
    {
      "inputs": [
        {
          "internalType": "bytes32",
          "name": "",
          "type": "bytes32"
        },
        {
          "internalType": "uint256",
          "name": "",
          "type": "uint256"
        }
      ],
      "name": "subjectToVCs",
      "outputs": [
        {
          "internalType": "bytes32",
          "name": "",
          "type": "bytes32"
        }
      ],
      "stateMutability": "view",
      "type": "function"
    },
    {
      "inputs": [
        {
          "internalType": "string",
          "name": "did",
          "type": "string"
        },
        {
          "internalType": "bytes32",
          "name": "newDocHash",
          "type": "bytes32"
        }
      ],
      "name": "updateDID",
      "outputs": [],
      "stateMutability": "nonpayable",
      "type": "function"
    },
    {
      "inputs": [
        {
          "internalType": "bytes32",
          "name": "",
          "type": "bytes32"
        }
      ],
      "name": "vcAnchors",
      "outputs": [
        {
          "internalType": "string",
          "name": "subjectDid",
          "type": "string"
        },
        {
          "internalType": "address",
          "name": "issuer",
          "type": "address"
        },
        {
          "internalType": "bytes32",
          "name": "vcHash",
          "type": "bytes32"
        },
        {
          "internalType": "string",
          "name": "metadataURI",
          "type": "string"
        },
        {
          "internalType": "uint256",
          "name": "timestamp",
          "type": "uint256"
        }
      ],
      "stateMutability": "view",
      "type": "function"
    }
  ],
  "bytecode": "0x608060405234801561001057600080fd5b50610f8f806100206000396000f3fe608060405234801561001057600080fd5b50600436106100885760003560e01c8063b59350e91161005b578063b59350e9146100f5578063c69b7cea14610108578063e078389814610128578063e310ca0a1461016257600080fd5b806317cab9c81461008d5780633b253b23146100a25780635a92671b146100b55780639970bfa3146100c8575b600080fd5b6100a061009b366004610ad4565b610183565b005b6100a06100b0366004610b20565b6102c2565b6100a06100c3366004610b62565b610427565b6100db6100d6366004610bdc565b61062a565b6040516100ec959493929190610c45565b60405180910390f35b6100a0610103366004610ad4565b610776565b61011b610116366004610b20565b6108e7565b6040516100ec9190610c93565b61013b610136366004610b20565b610991565b604080516001600160a01b03909416845260208401929092521515908201526060016100ec565b610175610170366004610cd7565b610a2a565b6040519081526020016100ec565b60006101c484848080601f016020809104026020016040519081016040528093929190818152602001838380828437600092019190915250610a5b92505050565b6000818152602081905260409020549091506001600160a01b03161561021e5760405162461bcd60e51b815260206004820152600a6024820152694449442065786973747360b01b60448201526064015b60405180910390fd5b60408051606081018252338082526020808301868152600184860181815260008881529384905292869020945185546001600160a01b0319166001600160a01b03909116178555905190840155516002909201805460ff19169215159290921790915590517fc7f55fa83c3019a95a9483c98ccd2852ed0e173b903e0e9152fab2c2125a24b4916102b491879187918790610d22565b60405180910390a150505050565b600061030383838080601f016020809104026020016040519081016040528093929190818152602001838380828437600092019190915250610a5b92505050565b60008181526020819052604090208054919250906001600160a01b031661035c5760405162461bcd60e51b815260206004820152600d60248201526c111251081b9bdd08199bdd5b99609a1b6044820152606401610215565b600281015460ff1661039f5760405162461bcd60e51b815260206004820152600c60248201526b44494420696e61637469766560a01b6044820152606401610215565b80546001600160a01b031633146103e95760405162461bcd60e51b815260206004820152600e60248201526d2737ba1031b7b73a3937b63632b960911b6044820152606401610215565b60028101805460ff191690556040517f4360f12f602ccecefb32480e5314d0d3f57d38db8f52c76d8fdf4c39596c1c28906102b49086908690610d52565b600083815260016020526040902060040154156104725760405162461bcd60e51b815260206004820152600960248201526856432065786973747360b81b6044820152606401610215565b6040805160c06020601f8801819004028201810190925260a0810186815260009282919089908990819085018382808284376000920191909152505050908252503360208083019190915260408083018890528051601f87018390048302810183019091528581526060909201919086908690819084018382808284376000920182905250938552505042602093840152508681526001909152604090208151919250829181906105239082610e0f565b5060208201516001820180546001600160a01b0319166001600160a01b0390921691909117905560408201516002820155606082015160038201906105689082610e0f565b5060808201518160040155905050600260006105b988888080601f016020809104026020016040519081016040528093929190818152602001838380828437600092019190915250610a5b92505050565b8152602080820192909252604090810160009081208054600181018255908252929020909101859055517f8bc690ead89910beb6edd2731f2e497b9a89335b0d424b6ad9d447c05b8ccbe39061061a90889088903390899089908990610ecf565b60405180910390a1505050505050565b60016020526000908152604090208054819061064590610d84565b80601f016020809104026020016040519081016040528092919081815260200182805461067190610d84565b80156106be5780601f10610693576101008083540402835291602001916106be565b820191906000526020600020905b8154815290600101906020018083116106a157829003601f168201915b505050506001830154600284015460038501805494956001600160a01b0390931694919350906106ed90610d84565b80601f016020809104026020016040519081016040528092919081815260200182805461071990610d84565b80156107665780601f1061073b57610100808354040283529160200191610766565b820191906000526020600020905b81548152906001019060200180831161074957829003601f168201915b5050505050908060040154905085565b60006107b784848080601f016020809104026020016040519081016040528093929190818152602001838380828437600092019190915250610a5b92505050565b60008181526020819052604090208054919250906001600160a01b03166108105760405162461bcd60e51b815260206004820152600d60248201526c111251081b9bdd08199bdd5b99609a1b6044820152606401610215565b600281015460ff166108535760405162461bcd60e51b815260206004820152600c60248201526b44494420696e61637469766560a01b6044820152606401610215565b80546001600160a01b0316331461089d5760405162461bcd60e51b815260206004820152600e60248201526d2737ba1031b7b73a3937b63632b960911b6044820152606401610215565b600181018390556040517f24ad87654090eeca1332838a9c5075779f618b16516f200389101d936958adb5906108d890879087908790610f19565b60405180910390a15050505050565b60606002600061092c85858080601f016020809104026020016040519081016040528093929190818152602001838380828437600092019190915250610a5b92505050565b815260200190815260200160002080548060200260200160405190810160405280929190818152602001828054801561098457602002820191906000526020600020905b815481526020019060010190808311610970575b5050505050905092915050565b6000806000806000806109d988888080601f016020809104026020016040519081016040528093929190818152602001838380828437600092019190915250610a5b92505050565b81526020808201929092526040908101600020815160608101835281546001600160a01b0316808252600183015494820185905260029092015460ff16151592018290529891975095509350505050565b60026020528160005260406000208181548110610a4657600080fd5b90600052602060002001600091509150505481565b600081604051602001610a6e9190610f3d565b604051602081830303815290604052805190602001209050919050565b60008083601f840112610a9d57600080fd5b50813567ffffffffffffffff811115610ab557600080fd5b602083019150836020828501011115610acd57600080fd5b9250929050565b600080600060408486031215610ae957600080fd5b833567ffffffffffffffff811115610b0057600080fd5b610b0c86828701610a8b565b909790965060209590950135949350505050565b60008060208385031215610b3357600080fd5b823567ffffffffffffffff811115610b4a57600080fd5b610b5685828601610a8b565b90969095509350505050565b600080600080600060608688031215610b7a57600080fd5b853567ffffffffffffffff80821115610b9257600080fd5b610b9e89838a01610a8b565b9097509550602088013594506040880135915080821115610bbe57600080fd5b50610bcb88828901610a8b565b969995985093965092949392505050565b600060208284031215610bee57600080fd5b5035919050565b60005b83811015610c10578181015183820152602001610bf8565b50506000910152565b60008151808452610c31816020860160208601610bf5565b601f01601f19169290920160200192915050565b60a081526000610c5860a0830188610c19565b6001600160a01b0387166020840152604083018690528281036060840152610c808186610c19565b9150508260808301529695505050505050565b6020808252825182820181905260009190848201906040850190845b81811015610ccb57835183529284019291840191600101610caf565b50909695505050505050565b60008060408385031215610cea57600080fd5b50508035926020909101359150565b81835281816020850137506000828201602090810191909152601f909101601f19169091010190565b606081526000610d36606083018688610cf9565b6001600160a01b03949094166020830152506040015292915050565b602081526000610d66602083018486610cf9565b949350505050565b634e487b7160e01b600052604160045260246000fd5b600181811c90821680610d9857607f821691505b602082108103610db857634e487b7160e01b600052602260045260246000fd5b50919050565b601f821115610e0a576000816000526020600020601f850160051c81016020861015610de75750805b601f850160051c820191505b81811015610e0657828155600101610df3565b5050505b505050565b815167ffffffffffffffff811115610e2957610e29610d6e565b610e3d81610e378454610d84565b84610dbe565b602080601f831160018114610e725760008415610e5a5750858301515b600019600386901b1c1916600185901b178555610e06565b600085815260208120601f198616915b82811015610ea157888601518255948401946001909101908401610e82565b5085821015610ebf5787850151600019600388901b60f8161c191681555b5050505050600190811b01905550565b608081526000610ee360808301888a610cf9565b6001600160a01b0387166020840152604083018690528281036060840152610f0c818587610cf9565b9998505050505050505050565b604081526000610f2d604083018587610cf9565b9050826020830152949350505050565b60008251610f4f818460208701610bf5565b919091019291505056fea26469706673582212204ec024b54c18e32c29af66a94999b60d4a4acf6edc3087cb1582ec287f94aceb64736f6c63430008180033",
  "linkReferences": {},
  "deployedLinkReferences": {}
}